:020000040000FA
:100000000C9462000C948A000C948A000C948A0070
:100010000C948A000C948A000C948A000C948A0038
:100020000C948A000C948A000C948A000C948A0028
:100030000C948A000C948A000C948A000C948A0018
:100040000C946E040C948A000C943C040C941604DA
:100050000C948A000C948A000C948A000C948A00F8
:100060000C94B8040C948A000000000024002700BF
:100070002A0000000000250028002B0000000000DE
:1000800023002600290004040404040404040202DA
:100090000202020203030303030301020408102007
:1000A0004080010204081020010204081020000012
:1000B0000008000201000003040700000000000027
:1000C00000001C0611241FBECFEFD8E0DEBFCDBF5D
:1000D00011E0A0E0B1E0E6E8F7E102C005900D9282
:1000E000AA35B107D9F722E0AAE5B1E001C01D9217
:1000F000A43DB207E1F710E0C2E6D0E004C02197CA
:10010000FE010E94BB0BC136D107C9F70E945506FC
:100110000C94C10B0C94000008950895AF92BF9207
:10012000CF92DF92EF92FF920F931F93CF93DF93C3
:100130006C017B018B01040F151FEB015E01AE18F2
:10014000BF08C017D10759F06991D601ED91FC9114
:100150000190F081E02DC6010995892B79F7C50141
:10016000DF91CF911F910F91FF90EF90DF90CF9093
:10017000BF90AF900895FC01538D448D252F30E042
:10018000842F90E0821B930B541710F0CF960895A4
:1001900001970895FC01918D828D981761F0A28DD1
:1001A000AE0FBF2FB11D5D968C91928D9F5F9F7397
:1001B000928F90E008958FEF9FEF0895FC01918D4D
:1001C000828D981731F0828DE80FF11D858D90E0BA
:1001D00008958FEF9FEF0895FC01918D228D892F57
:1001E00090E0805C9F4F821B91098F73992708953F
:1001F0008BE292E00E94EC0021E0892B09F420E0E0
:10020000822F089580E090E0892B29F00E94F80069
:1002100081110C9400000895FC01A48DA80FB92F42
:10022000B11DA35ABF4F2C91848D90E001968F731E
:100230009927848FA689B7892C93A089B1898C913D
:10024000837080648C93938D848D981306C002888C
:10025000F389E02D80818F7D80830895EF92FF9256
:100260000F931F93CF93DF93EC0181E0888F9B8DD9
:100270008C8D98131AC0E889F989808185FF15C093
:100280009FB7F894EE89FF896083E889F9898081B6
:100290008370806480839FBF81E090E0DF91CF9185
:1002A0001F910F91FF90EF900895F62E0B8D10E0A7
:1002B0000F5F1F4F0F731127E02E8C8D8E110CC016
:1002C0000FB607FCFACFE889F989808185FFF5CF61
:1002D000CE010E940C01F1CFEB8DEC0FFD2FF11D33
:1002E000E35AFF4FF0829FB7F8940B8FEA89FB899E
:1002F00080818062CFCFCF93DF93EC01888D8823FC
:10030000B9F0AA89BB89E889F9898C9185FD03C078
:10031000808186FD0DC00FB607FCF7CF8C9185FF5D
:10032000F2CF808185FFEDCFCE010E940C01E9CF95
:10033000DF91CF910895833081F028F4813099F0D6
:100340008230A9F008958730A9F08830C9F0843050
:10035000B1F4809180008F7D03C0809180008F7701
:1003600080938000089584B58F7784BD089584B507
:100370008F7DFBCF8091B0008F778093B000089580
:100380008091B0008F7DF9CFCF93DF93ECEBF0E05D
:100390008491E8EAF0E0D491E4E9F0E0C491CC2360
:1003A000A1F081110E949B01EC2FF0E0EE0FFF1FE6
:1003B000E458FF4FA591B491EC91ED2381E090E0DA
:1003C00009F480E0DF91CF91089580E090E0FACFCA
:1003D0001F93CF93DF93282F30E0F901E255FF4FB1
:1003E0008491F901E656FF4FD491F901EA57FF4F86
:1003F000C491CC23A9F0162F81110E949B01EC2FF0
:10040000F0E0EE0FFF1FEE58FF4FA591B4918FB7AC
:10041000F894EC91111108C0D095DE23DC938FBFC6
:10042000DF91CF911F910895DE2BF8CFCF93DF930B
:1004300090E0FC01E656FF4F24918A579F4FFC0144
:1004400084918823D1F090E0880F991FFC01E8592E
:10045000FF4FA591B491FC01EE58FF4FC591D49187
:1004600061110EC09FB7F8948C91E22FE0958E2316
:100470008C932881E223E8839FBFDF91CF91089579
:100480008FB7F894EC91E22BEC938FBFF6CF3FB788
:10049000F8948091C3019091C401A091C501B091DD
:1004A000C60126B5A89B05C02F3F19F00196A11DD6
:1004B000B11D3FBFBA2FA92F982F8827BC01CD01AE
:1004C000620F711D811D911D42E0660F771F881F0D
:1004D000991F4A95D1F708958F929F92AF92BF923C
:1004E000CF92DF92EF92FF924B015C010E94470294
:1004F0006B017C010E9447026C197D098E099F09DE
:10050000683E734081059105A8F321E0821A9108A5
:10051000A108B10888EEC80E83E0D81EE11CF11CCA
:1005200081149104A104B10429F7FF90EF90DF90AA
:10053000CF90BF90AF909F908F90089520919B0196
:10054000260F3327331F21323105ECF42091F301BC
:10055000FC0190E080E0243069F082E00895A091F1
:100560009B012191AC0145585E4FA40FB52FB11DE1
:100570002C930196861798F380919B01680F6093E6
:100580009B0180E0089581E008951092F30181E0DD
:100590008093F2011092CD0161E082E10E94E801B6
:1005A00061E083E10E94E801E9EBF0E080818E7F69
:1005B000808380818D7F808388E48093B80085E488
:1005C0008093BC000895CF93DF9391E090937A01DC
:1005D0008823B9F0C091B800D091BA008091BC00D6
:1005E0008A7B8093BC0060E082E10E94E80160E0C9
:1005F00083E10E94E8010E94C502D093BA00C09333
:10060000B800DF91CF9108950895E091CC018091D9
:10061000CB01E81730F4F0E0E65AFE4F808190E01D
:1006200008958FEF9FEF08959091CC018091CB01B9
:100630002FEF3FEF981748F4E92FF0E0E65AFE4F0E
:10064000208130E09F5F9093CC01C9010895809193
:10065000CB019091CC01891B990B0895CF92DF9229
:10066000EF92FF920F931F93CF93DF937C01CB0107
:100670008A012091F901222389F0EB016B01C40E5C
:10068000D51ECC15DD0569F06991D701ED91FC917E
:100690000190F081E02DC7010995F3CF642F0E94EE
:1006A0009E02C801DF91CF911F910F91FF90EF90B3
:1006B000DF90CF900895CF93DF931F92CDB7DEB731
:1006C00069832091F9012223F9F020911C02203244
:1006D00058F021E030E0FC013383228390E080E099
:1006E0000F90DF91CF9108958091FA01E82FF0E00B
:1006F000E550FE4F998190838F5F8093FA0180933C
:100700001C0281E090E0ECCF61E0CE0101960E94F6
:100710009E02F7CF90E080E00895FC010190002058
:10072000E9F73197AF01481B590BBC018BE292E00E
:100730000C948E008F929F92AF92BF920F931F9353
:10074000CF93DF93CDB7DEB7A1970FB6F894DEBF96
:100750000FBECDBF19A2423008F44AE08E010F5DF2
:100760001F4F842E912CB12CA12CA50194010E9425
:10077000C809E62FB901CA01EA30F4F4E05DD801F6
:10078000EE938D01232B242B252B79F790E080E02D
:10079000109719F0CD010E948D03A1960FB6F89421
:1007A000DEBF0FBECDBFDF91CF911F910F91BF90E4
:1007B000AF909F908F900895E95CE1CF85ED809395
:1007C000BC008091F5019091F601A091F701B091E4
:1007D000F8010796A11DB11D23E0B695A795979541
:1007E00087952A95D1F72091BC0024FD03C0109273
:1007F000F30108954091F5015091F6016091F701E0
:100800007091F801452B462B472B69F30097A10502
:10081000B10541F025E32A95F1F700000197A10900
:10082000B109E1CF8091F4010C94E3021F920F9281
:100830000FB60F9211242F933F934F935F936F93B3
:100840007F938F939F93AF93BF93EF93FF938BE22D
:1008500092E00E940C01FF91EF91BF91AF919F91A7
:100860008F917F916F915F914F913F912F910F9059
:100870000FBE0F901F9018951F920F920FB60F92F8
:1008800011242F938F939F93EF93FF93E0913B025B
:10089000F0913C028081E0914102F091420282FDA0
:1008A0001BC09081809144028F5F8F73209145021D
:1008B000821741F0E0914402F0E0E55DFD4F958F35
:1008C00080934402FF91EF919F918F912F910F9010
:1008D0000FBE0F901F9018958081F4CF1F920F923A
:1008E0000FB60F9211242F933F938F939F93AF9343
:1008F000BF938091BF019091C001A091C101B091BF
:10090000C2013091BE0123E0230F2D3758F5019627
:10091000A11DB11D2093BE018093BF019093C00122
:10092000A093C101B093C2018091C3019091C40111
:10093000A091C501B091C6010196A11DB11D809382
:10094000C3019093C401A093C501B093C601BF91A8
:10095000AF919F918F913F912F910F900FBE0F906C
:100960001F90189526E8230F0296A11DB11DD2CF26
:100970001F920F920FB60F9211242F933F934F9314
:100980005F936F937F938F939F93AF93BF93EF93F7
:10099000FF938091B900887F803609F44AC0F0F552
:1009A000883209F4A7C018F5803109F49BC0B8F467
:1009B000882309F4F9C0883009F494C0FF91EF91BD
:1009C000BF91AF919F918F917F916F915F914F9167
:1009D0003F912F910F900FBE0F901F901895883167
:1009E00009F488C0803251F78093F10114C080343B
:1009F00009F49DC040F48033B9F38833F9F680934D
:100A0000F10185ECB0C0803509F485C0883509F462
:100A100096C0883499F60E94DE03D0CF883909F455
:100A20008CC038F5883729F050F4883611F08037BB
:100A300029F683E08093F3011092BD0157C08838F6
:100A400009F47BC0803919F0803809F0B7CF809164
:100A5000BD01803208F071C0E091BD0181E08E0FD0
:100A60008093BD018091BB00F0E0E356FE4F808390
:100A70003DC0803B39F0E0F4803A09F479C0883A0F
:100A800009F09CCF84E08093F30110929C011092B6
:100A90009B01E091C901F091CA01099580919B01E8
:100AA00081110FC081E080939B0110927B0109C0EE
:100AB000803C09F4A6CF883C09F4A3CF883B09F019
:100AC0007DCFE0919C0181E08E0F80939C01F0E04E
:100AD000E558FE4F80818093BB0090919C018091EE
:100AE0009B0129C08091CE018093BB0085EC80934F
:100AF000BC0064CF9091F0018091EF01981758F5F8
:100B0000E091F00181E08E0F8093F001F0E0E1537D
:100B1000FE4F8081E9CFE091F00181E08E0F80935C
:100B2000F0018091BB00F0E0E153FE4F8083909193
:100B3000F0018091EF019817C8F285E8D8CFE091D5
:100B4000F00181E08E0F8093F0018091BB00F0E016
:100B5000E153FE4F80838091F20181115CCF81E0EF
:100B60008093CD0184EA8093BC001092F30126CFDC
:100B700085EC8093BC001092F3018091BD0180321E
:100B800030F4E091BD01F0E0E356FE4F1082609139
:100B9000BD0170E0E091C701F091C8018DE991E0DD
:100BA00009951092BD010ACF1092F10134CFCF9276
:100BB000DF92EF92FF920F931F93E82FF92F05C05A
:100BC000015011092109310961F19081962394178F
:100BD000B9F305C0015011092109310911F19081C2
:100BE00096239413F7CFC12CD12CE12CF12C0AC001
:100BF0008FEFC81AD80AE80AF80A0C151D052E0549
:100C00003F0579F080818623841791F36C2D7D2D2B
:100C10008E2D9F2D1F910F91FF90EF90DF90CF9021
:100C2000089560E070E080E090E01F910F91FF90E8
:100C3000EF90DF90CF900895EBE2F2E01382128202
:100C400088EE93E0A0E0B0E084839583A683B78329
:100C500024E031E03183208325EC30E035872487A0
:100C600024EC30E03787268720EC30E0318B208B76
:100C700021EC30E0338B228B22EC30E0358B248B5F
:100C800026EC30E0378B268B118E128E138E148E4D
:100C9000E8ECF2E01382128284839583A683B78303
:100CA00086E191E0918380830895789484B5826091
:100CB00084BD84B5816084BD85B5826085BD85B500
:100CC000816085BD80916E00816080936E0010927E
:100CD00081008091810082608093810080918100F9
:100CE000816080938100809180008160809380008A
:100CF0008091B10084608093B1008091B0008160E8
:100D00008093B00080917A00846080937A00809113
:100D10007A00826080937A0080917A00816080936B
:100D20007A0080917A00806880937A001092C100E6
:100D30001092CC011092CB011092FA0110921C0279
:100D40000E94C5028CE890E09093CA018093C9018B
:100D50008DE890E09093C8018093C70161E085E041
:100D60000E94160261E086E00E94160261E087E0C0
:100D70000E94160261E08CE00E94160260E08BE0A7
:100D80000E941602E0913B02F0913C0282E08083D7
:100D9000E0913702F09138021082E0913902F0912F
:100DA0003A028FEC808310924302E0913F02F0916F
:100DB000400286E08083E0913D02F0913E02808116
:100DC00080618083E0913D02F0913E0280818860E5
:100DD0008083E0913D02F0913E02808180688083B3
:100DE000E0913D02F0913E0280818F7D80835BE93E
:100DF000652E712CD2E0C4E61092260210922702D2
:100E0000109228021092290210922A0261E08EE0CC
:100E10000E94160260E08EE00E94E80164E170E04A
:100E200080E090E00E946C0261E08EE00E94E801A8
:100E3000C3010197F1F760E08EE00E94160201E124
:100E400017E20E94C401892B09F02EC1015011093B
:100E5000C1F760E08CE00E94E80183E090E0019738
:100E6000F1F761E08CE00E94E80183E290E00197F5
:100E7000F1F760E08CE00E94E801E5EAF0E06491BF
:100E8000E1E9F0E08491E82FF0E0EE0FFF1FE45875
:100E9000FF4F8591949100E412E42FE030E0462F5B
:100EA0000E94D705611571058105910529F06F5FD5
:100EB0007F4F8F4F9F4F9F700E94940A26E933E423
:100EC0004BE05DE30E94490B20E030E040E05FE34F
:100ED0000E94490B0E945C0A4B015C0120E030E05B
:100EE0004CE052E46091220270912302809124022E
:100EF000909125020E94440B18160CF045C161E048
:100F000085E00E94E80160E086E00E94E80160E080
:100F100087E00E94E80184E291E00E948D03C09086
:100F20002202D0902302E0902402F0902502A70133
:100F30009601C701B6010E94B60B882309F42EC1A1
:100F400083E391E00E948D0360912202709123025D
:100F500080912402909125020E94630A60931D02F1
:100F60008FE391E00E948D0386E491E00E948D035F
:100F70004AE0C501B401B7FE0DC06DE28BE292E01C
:100F80000E942E0166277727CB01681979098A0903
:100F90009B094AE00E949A0382E591E00E948D033A
:100FA00086E591E00E948D0381E08093F901C09372
:100FB0001B021092FA0110921C0260911D0288EC33
:100FC00092E00E945B0310911C02113208F09DC157
:100FD0000E9447026B017C018091F301811170C175
:100FE000D093F301C093F201FFEFF093F10110925F
:100FF000F0011093EF01ABEFB1E0EFECF1E018136B
:101000009DC11092CE018091CE01886C8093CE015B
:101010008091CD01813009F095C11092CD010E94DF
:1010200047026B017C018091CE018093BB008091CF
:10103000F5019091F601A091F701B091F801892B8B
:101040008A2B8B2BA1F00E9447020091F501109191
:10105000F6012091F7013091F8016C197D098E0994
:101060009F09061717072807390708F44AC1809116
:10107000BC0083FDD8CF85EC8093BC000E94470262
:101080006B017C018091F301823009F45FC1809192
:10109000F1018F3F09F439C18091F101803209F4E7
:1010A00034C18091F10131C101E117E20E94C40114
:1010B000019721F401501109C9F7CBCE08E210E0E5
:1010C00047E0D42EC12C31E1E32E37E2F32E0E940B
:1010D000C401892B29F481E0E81AF108C1F7B9CEDF
:1010E0000E9447024B015C0121E1E22E27E2F22E31
:1010F0000E94C401019729F491E0E91AF108C1F7AF
:10110000A8CE0E944702681979098A099B096932A9
:1011100071058105910570F0EC2DF0E0E25EFD4F68
:10112000208581E090E00D2C01C0880F0A94EAF739
:10113000822B8087D11026C0C39497E0D92E01500E
:10114000110909F0C0CF6091260270E090E080E0C4
:101150000E94920A60931E0270931F0280932002E5
:10116000909321026091280270E090E080E00E945C
:10117000920A609322027093230280932402909338
:10118000250267CEDA94DBCF60E085E00E94E801BB
:1011900060E086E00E94E80161E0BACE1601270116
:1011A000E89457F82FEF3FEF4FE75FE7C201B10137
:1011B0000E94B60B81110DC02FEF3FEF4FE75FE7A5
:1011C000C201B1010E94570A18161CF487E391E08E
:1011D000B9CE2FEF3FEF4FE75FE4C701B6010E94A2
:1011E000440B18161CF48BE391E0ACCE2FEF3FEFCD
:1011F0004FE75FECC701B6010E94570A87FDF3CFA6
:1012000020E030E0A901C701B6010E94570A87FF1C
:1012100009C06DE28BE292E00E942E01F7FAF09491
:10122000F7F8F0942AE037ED43EA5BE3C701B60133
:101230000E94EB091B012C010E94630A6B017C01D7
:101240000E94920A9B01AC01C201B1010E94EA090D
:101250001B012C014AE0C701B6010E949A036EE20D
:101260008BE292E00E942E0120E030E040E251E467
:10127000C201B1010E94490B1B012C010E94630AAB
:101280006B01F12CE12C4AE0C701B6010E949A03E0
:10129000C701B6010E94920A9B01AC01C201B101D3
:1012A0000E94EA0920E030E040E251E40E94490B4C
:1012B0000E94630A90E080E04AE00E949A0344CED4
:1012C0008091F5019091F601A091F701B091F8019C
:1012D000892B8A2B8B2B09F47FCE0E9447028090AA
:1012E000F5019090F601A090F701B090F8016C190B
:1012F0007D098E099F0986169706A806B90608F08B
:101300006BCE8091F4010E94E3021092FA011092D8
:101310001C021092F90168EC70E080E090E00E94FD
:101320006C02E0E0F0E0EF2B09F466CD0E94F800DB
:10133000882309F461CD0E9400005DCD9D919193B9
:101340008F5F5DCE95EE9093BC0098CE8091F501B5
:101350009091F601A091F701B091F801892B8A2BA9
:101360008B2B09F48FCE0E9447020091F50110915A
:10137000F6012091F7013091F8016C197D098E0971
:101380009F09061717072807390708F07BCEB9CF42
:10139000A1E21A2EAA1BBB1BFD010DC0AA1FBB1F79
:1013A000EE1FFF1FA217B307E407F50720F0A21BEB
:1013B000B30BE40BF50B661F771F881F991F1A9458
:1013C00069F760957095809590959B01AC01BD0182
:1013D000CF0108955058BB27AA270E94020A0C94F7
:1013E0000A0B0E94FC0A38F00E94030B20F039F42B
:1013F0009F3F19F426F40C94F90A0EF4E095E7FBEC
:101400000C94F30AE92F0E941B0B58F3BA176207DA
:1014100073078407950720F079F4A6F50C943D0B2B
:101420000EF4E0950B2EBA2FA02D0B01B9019001FF
:101430000C01CA01A0011124FF27591B99F0593F43
:1014400050F4503E68F11A16F040A22F232F342F8B
:101450004427585FF3CF469537952795A795F040D9
:101460005395C9F77EF41F16BA0B620B730B840BEE
:10147000BAF09150A1F0FF0FBB1F661F771F881FA6
:10148000C2F70EC0BA0F621F731F841F48F48795FE
:1014900077956795B795F7959E3F08F0B0CF9395F0
:1014A000880F08F09927EE0F9795879508950E9469
:1014B000CF0A08F481E008950E94630A6894B1118C
:1014C0000C943E0B08950E94230B88F09F5798F0D0
:1014D000B92F9927B751B0F0E1F0660F771F881F39
:1014E000991F1AF0BA95C9F714C0B13091F00E9453
:1014F0003D0BB1E008950C943D0B672F782F8827A2
:10150000B85F39F0B93FCCF3869577956795B39579
:10151000D9F73EF490958095709561957F4F8F4FE8
:101520009F4F0895E89409C097FB3EF490958095ED
:10153000709561957F4F8F4F9F4F9923A9F0F92F99
:1015400096E9BB279395F695879577956795B79517
:10155000F111F8CFFAF4BB0F11F460FF1BC06F5FFD
:101560007F4F8F4F9F4F16C0882311F096E911C00F
:10157000772321F09EE8872F762F05C0662371F030
:1015800096E8862F70E060E02AF09A95660F771F44
:10159000881FDAF7880F9695879597F90895990F20
:1015A0000008550FAA0BE0E8FEEF16161706E8072D
:1015B000F907C0F012161306E407F50798F0621B4E
:1015C000730B840B950B39F40A2661F0232B242B23
:1015D000252B21F408950A2609F4A140A6958FEF42
:1015E000811D811D089597F99F6780E870E060E094
:1015F00008959FEF80EC089500240A9416161706AC
:1016000018060906089500240A94121613061406F3
:1016100005060895092E0394000C11F4882352F056
:10162000BB0F40F4BF2B11F460FF04C06F5F7F4F0E
:101630008F4F9F4F089557FD9058440F551F59F0F5
:101640005F3F71F04795880F97FB991F61F09F3FAF
:1016500079F087950895121613061406551FF2CFD8
:101660004695F1DF08C0161617061806991FF1CF28
:1016700086957105610508940895E894BB2766274F
:101680007727CB0197F908950E94CF0A08F48FEFCE
:1016900008950E945C0B0C940A0B0E94FC0A38F01F
:1016A0000E94030B20F0952311F00C94F30A0C9484
:1016B000F90A11240C943E0B0E941B0B70F3959FAA
:1016C000C1F3950F50E0551F629FF001729FBB2739
:1016D000F00DB11D639FAA27F00DB11DAA1F649FD5
:1016E0006627B00DA11D661F829F2227B00DA11D88
:1016F000621F739FB00DA11D621F839FA00D611D0E
:10170000221F749F3327A00D611D231F849F600D2E
:10171000211D822F762F6A2F11249F5750409AF057
:10172000F1F088234AF0EE0FFF1FBB1F661F771FE3
:10173000881F91505040A9F79E3F510580F00C94AE
:10174000F30A0C943E0B5F3FE4F3983ED4F3869586
:1017500077956795B795F795E7959F5FC1F7FE2B4E
:10176000880F911D9695879597F908950E94CF0A45
:10177000880B990B0895EE0FFF1F0590F491E02D53
:101780000994F894FFCF000000002E018E00BB00EA
:101790007B01EC00CA00DE00000000005B032E03AA
:1017A0008A03040327031403050354656D706572EF
:1017B0006174757265203D20006E616E00696E6611
:1017C000006F7666004320616E6420004469737484
:1017D000616E6365203D200020636D000D0A0000EE
:107E0000112484B714BE81FFF0D085E080938100F7
:107E100082E08093C00088E18093C10086E0809377
:107E2000C20080E18093C4008EE0C9D0259A86E02C
:107E300020E33CEF91E0309385002093840096BBD3
:107E4000B09BFECF1D9AA8958150A9F7CC24DD24C4
:107E500088248394B5E0AB2EA1E19A2EF3E0BF2EE7
:107E6000A2D0813461F49FD0082FAFD0023811F036
:107E7000013811F484E001C083E08DD089C08234E0
:107E800011F484E103C0853419F485E0A6D080C0E4
:107E9000853579F488D0E82EFF2485D0082F10E0AE
:107EA000102F00270E291F29000F111F8ED06801E7
:107EB0006FC0863521F484E090D080E0DECF843638
:107EC00009F040C070D06FD0082F6DD080E0C81688
:107ED00080E7D80618F4F601B7BEE895C0E0D1E017
:107EE00062D089930C17E1F7F0E0CF16F0E7DF06D8
:107EF00018F0F601B7BEE89568D007B600FCFDCFD4
:107F0000A601A0E0B1E02C9130E011968C91119780
:107F100090E0982F8827822B932B1296FA010C0160
:107F200087BEE89511244E5F5F4FF1E0A038BF0790
:107F300051F7F601A7BEE89507B600FCFDCF97BE46
:107F4000E89526C08437B1F42ED02DD0F82E2BD052
:107F50003CD0F601EF2C8F010F5F1F4F84911BD097
:107F6000EA94F801C1F70894C11CD11CFA94CF0C13
:107F7000D11C0EC0853739F428D08EE10CD085E9AC
:107F80000AD08FE07ACF813511F488E018D01DD067
:107F900080E101D065CF982F8091C00085FFFCCF94
:107FA0009093C60008958091C00087FFFCCF809118
:107FB000C00084FD01C0A8958091C6000895E0E648
:107FC000F0E098E1908380830895EDDF803219F02E
:107FD00088E0F5DFFFCF84E1DECF1F93182FE3DFCA
:107FE0001150E9F7F2DF1F91089580E0E8DFEE27F6
:047FF000FF270994CA
:027FFE00040479
:00000001FF
