:020000040000FA
:100000000C9462000C948A000C948A000C948A0070
:100010000C948A000C948A000C948A000C948A0038
:100020000C948A000C948A000C948A000C94D002E0
:100030000C948A000C948A000C948A000C948A0018
:100040000C9486020C948A000C9454020C942E0298
:100050000C948A000C948A000C948A000C948A00F8
:100060000C948A000C948A000000000023002600F3
:10007000290000000000240027002A0000000000E2
:10008000250028002B0004040404040404040202D4
:100090000202020203030303030301020408102007
:1000A0004080010204081020010204081020000012
:1000B0000008000201000003040700000000000027
:1000C0000000970511241FBECFEFD8E0DEBFCDBFE3
:1000D00011E0A0E0B1E0EEEEFBE002C005900D9271
:1000E000A235B107D9F722E0A2E5B1E001C01D9227
:1000F000AD35B207E1F710E0C2E6D0E004C02197C9
:10010000FE010E94E605C136D107C9F70E940C0422
:100110000C94F5050C940000AF92BF92CF92DF9241
:10012000EF92FF920F931F93CF93DF936C017B01AC
:100130008B01040F151FEB015E01AE18BF08C0173D
:10014000D10759F06991D601ED91FC910190F081B0
:10015000E02DC6010995892B79F7C501DF91CF9173
:100160001F910F91FF90EF90DF90CF90BF90AF90D5
:100170000895FC01538D448D252F30E0842F90E0AD
:10018000821B930B541710F0CF9608950197089592
:10019000FC01918D828D981761F0A28DAE0FBF2F5B
:1001A000B11D5D968C91928D9F5F9F73928F90E0B1
:1001B00008958FEF9FEF0895FC01918D828D981720
:1001C00031F0828DE80FF11D858D90E008958FEF5D
:1001D0009FEF0895FC01918D228D892F90E0805C26
:1001E0009F4F821B91098F739927089580EC91E0AE
:1001F0000E94EA0021E0892B09F420E0822F089573
:1002000080E090E0892B29F00E94F60081110C9487
:1002100000000895FC01A48DA80FB92FB11DA35AA9
:10022000BF4F2C91848D90E001968F739927848F16
:10023000A689B7892C93A089B1898C918370806439
:100240008C93938D848D981306C00288F389E02DDA
:1002500080818F7D80830895EF92FF920F931F938B
:10026000CF93DF93EC0181E0888F9B8D8C8D981369
:100270001AC0E889F989808185FF15C09FB7F89475
:10028000EE89FF896083E889F989808183708064C1
:1002900080839FBF81E090E0DF91CF911F910F910C
:1002A000FF90EF900895F62E0B8D10E00F5F1F4F1B
:1002B0000F731127E02E8C8D8E110CC00FB607FC2A
:1002C000FACFE889F989808185FFF5CFCE010E94B8
:1002D0000A01F1CFEB8DEC0FFD2FF11DE35AFF4F1B
:1002E000F0829FB7F8940B8FEA89FB898081806246
:1002F000CFCFCF93DF93EC01888D8823B9F0AA8903
:10030000BB89E889F9898C9185FD03C0808186FDD0
:100310000DC00FB607FCF7CF8C9185FFF2CF80811F
:1003200085FFEDCFCE010E940A01E9CFDF91CF9189
:100330000895833081F028F4813099F08230A9F05B
:1003400008958730A9F08830C9F08430B1F48091E5
:1003500080008F7D03C0809180008F778093800024
:10036000089584B58F7784BD089584B58F7DFBCFC4
:100370008091B0008F778093B00008958091B00095
:100380008F7DF9CF1F93CF93DF93282F30E0F901B2
:10039000E255FF4F8491F901E656FF4FD491F901E0
:1003A000EA57FF4FC491CC23A9F0162F81110E9468
:1003B0009901EC2FF0E0EE0FFF1FE458FF4FA591DD
:1003C000B4918FB7F894EC91111108C0D095DE2349
:1003D000DC938FBFDF91CF911F910895DE2BF8CF73
:1003E000CF93DF9390E0FC01E656FF4F24918A57AC
:1003F0009F4FFC0184918823D1F090E0880F991FD2
:10040000FC01EE58FF4FA591B491FC01E458FF4F59
:10041000C591D49161110EC09FB7F8948C91E22FD1
:10042000E0958E238C932881E223E8839FBFDF91A0
:10043000CF9108958FB7F894EC91E22BEC938FBF96
:10044000F6CFFC0101900020E9F73197AF01481B7E
:10045000590BBC0180EC91E00C948C001F920F9220
:100460000FB60F9211242F933F934F935F936F9387
:100470007F938F939F93AF93BF93EF93FF9380EC02
:1004800091E00E940A01FF91EF91BF91AF919F917E
:100490008F917F916F915F914F913F912F910F902D
:1004A0000FBE0F901F9018951F920F920FB60F92CC
:1004B00011242F938F939F93EF93FF93E091D0019B
:1004C000F091D1018081E091D601F091D70182FDB8
:1004D0001BC090818091D9018F5F8F732091DA01C9
:1004E000821741F0E091D901F0E0E054FE4F958F82
:1004F0008093D901FF91EF919F918F912F910F9050
:100500000FBE0F901F9018958081F4CF1F920F920D
:100510000FB60F9211242F933F938F939F93AF9316
:10052000BF938091650190916601A0916701B091A0
:1005300068013091640123E0230F2D3758F50196AF
:10054000A11DB11D20936401809365019093660104
:10055000A0936701B093680180916001909161015F
:10056000A0916201B09163010196A11DB11D80931C
:10057000600190936101A0936201B0936301BF9108
:10058000AF919F918F913F912F910F900FBE0F9040
:100590001F90189526E8230F0296A11DB11DD2CFFA
:1005A0001F920F920FB60F9211241F932F933F9318
:1005B0004F935F936F937F938F939F93AF93BF936B
:1005C000CF93DF93EF93FF9310916B01112339F1D8
:1005D00080915F01811123C02091000130E0F90179
:1005E000E255FF4F8491F901E656FF4FD491F9018E
:1005F000EA57FF4FC491CC2379F081110E949901F1
:10060000EC2FF0E0EE0FFF1FE859FF4FA591B491DA
:10061000EC91DE2381E009F480E080935E0180911B
:100620005F018823E1F080915D0191E0980F909344
:100630005D01811114C0609169018AE00E94C201CC
:1006400060E08CE00E94C20110925F0180915B012A
:1006500090915C01019690935C0180935B01809185
:100660005D01883010F010925D01112309F492C0F1
:1006700080915F0181118EC090915E01992329F0D4
:1006800080915A018F5F80935A0180915801209187
:100690005901921709F44AC02BE0803508F02DE18A
:1006A000820F809358019093590120915801203A6C
:1006B00008F470C0809156019091570196958795E6
:1006C000909357018093560130915A01353028F0AC
:1006D00098609093570180935601205A20935801B7
:1006E00010925A0180916A01882309F484C0809194
:1006F00055018F5F809355018C3008F44BC0809179
:10070000560190915701382F3F73232F2695269538
:10071000287048E0420F421769F0E22FF0E0E15FF5
:10072000FE4F5081351739F02F5FF5CF8C5E8093E7
:100730005801BBCF20E040E1249F9001112436E016
:10074000969587953A95E1F7482F959587959595D4
:100750008795887098E0980F981749F0E82FF0E097
:10076000E15FFE4F5081451719F08F5FF5CF80E0B4
:10077000822B9091BC01911121C0809354019CEF78
:10078000980F9D34D8F010926A01809153018F5FC9
:1007900080935301FF91EF91DF91CF91BF91AF9182
:1007A0009F918F917F916F915F914F913F912F9189
:1007B0001F910F900FBE0F901F901895E091BC01F4
:1007C00091E09E0F9093BC01F0E0E459FE4F8083CE
:1007D0009091BC0180915401981750F010926A01D9
:1007E000809152018F5F8093520181E08093BD011F
:1007F00010925501CFCF80915601909157018833C7
:100800009B4041F681E080936A011092550110925D
:10081000BC011092BD01BECFCF93DF93CDB7DEB741
:10082000C157D1090FB6F894DEBF0FBECDBF789483
:1008300084B5826084BD84B5816084BD85B58260E5
:1008400085BD85B5816085BD80916E008160809396
:100850006E001092810080918100826080938100FF
:10086000809181008160809381008091800081600F
:10087000809380008091B10084608093B10080916A
:10088000B00081608093B00080917A008460809392
:100890007A0080917A00826080937A0080917A0059
:1008A000816080937A0080917A00806880937A00DA
:1008B0001092C100E091D001F091D10182E08083DB
:1008C000E091CC01F091CD011082E091CE01F09148
:1008D000CF018FEC80831092D801E091D401F09188
:1008E000D50186E08083E091D201F091D30180812F
:1008F00080618083E091D201F091D3018081886092
:100900008083E091D201F091D3018081806880835F
:10091000E091D201F091D30180818F7D808381E0CD
:10092000809369018EE0E1E0F1E0DE011196019033
:100930000D928A95E1F77E0123E0E20EF11C11E0B1
:10094000412C44E2542E44EF642E712C50E8852E45
:100950005EE3952EA12CB12CF701219131917F01FD
:1009600050E040E0C301B2010E94C405CA01B901D0
:10097000A50194010E94C4052230310541055105AD
:1009800008F0ACC01F5F173039F78BE0809300018F
:1009900080916B01811105C081E080936B01109201
:1009A0006A019AE0492E512C612C712C20E0C22E54
:1009B00020E0D22EAA24A394B12C8091BD018823DB
:1009C00009F480C00091BC010350003508F000E537
:1009D00010E0A8016DE671E0CE0101960E94EC05E1
:1009E0001092BD012091BC01ECE6F1E08FEF9FEF8A
:1009F000215098F031918327082E8295807F8025A1
:100A0000092E982F82958F7008268695982789271A
:100A1000880F880F880F8025EBCF883B904F09F017
:100A200051C08981833309F04DC0B092BF01A092BB
:100A3000BE018091BE019091BF01801791070CF01B
:100A400041C021E030E02C0F3D1F820F931FFC01BD
:100A5000F08081E391E00E9421022F2D30E050E0F0
:100A600040E0E2961FAEE29781E5E82EF12CEC0E15
:100A7000FD1EF0E2EF0EF11CCA01B901A3019201C3
:100A80000E94C405605DF70162937F012115310565
:100A90004105510589F7309719F0CF010E942102D5
:100AA0008CE491E00E9421028EE491E00E942102F8
:100AB0008091BE019091BF0101969093BF018093F8
:100AC000BE01B7CFC114D10409F477CF0E94F6005C
:100AD000882309F472CF0E9400006FCF163009F40A
:100AE00054CF1092800088E0809381008091810033
:100AF000182B1093810030938900209388008091F7
:100B00006F00826080936F0061E08CE00E94F001D2
:100B100060E0809100010E94F00161E08AE00E94A3
:100B2000F001609169018AE00E94C2012ECFE0ECE1
:100B3000F1E01382128288EE93E0A0E0B0E08483BB
:100B40009583A683B78383E291E09183808385ECCC
:100B500090E09587848784EC90E09787868780EC87
:100B600090E0918B808B81EC90E0938B828B82EC78
:100B700090E0958B848B86EC90E0978B868B118E22
:100B8000128E138E148E0895A1E21A2EAA1BBB1B7F
:100B9000FD010DC0AA1FBB1FEE1FFF1FA217B30749
:100BA000E407F50720F0A21BB30BE40BF50B661F5F
:100BB000771F881F991F1A9469F760957095809523
:100BC00090959B01AC01BD01CF010895EE0FFF1F71
:100BD0000590F491E02D0994FB01DC0102C0019025
:100BE0000D9241505040D8F70895F894FFCF0B0074
:100BF0000001000800400000010004050D0D0E1367
:100C00001516191A1C232526292A2C323400000017
:100C1000002C018C00B9007901EA00C800DC005208
:100C20006563656976657220433A2054656D706529
:100C3000726174757265203D200043000D0A00004A
:107E0000112484B714BE81FFF0D085E080938100F7
:107E100082E08093C00088E18093C10086E0809377
:107E2000C20080E18093C4008EE0C9D0259A86E02C
:107E300020E33CEF91E0309385002093840096BBD3
:107E4000B09BFECF1D9AA8958150A9F7CC24DD24C4
:107E500088248394B5E0AB2EA1E19A2EF3E0BF2EE7
:107E6000A2D0813461F49FD0082FAFD0023811F036
:107E7000013811F484E001C083E08DD089C08234E0
:107E800011F484E103C0853419F485E0A6D080C0E4
:107E9000853579F488D0E82EFF2485D0082F10E0AE
:107EA000102F00270E291F29000F111F8ED06801E7
:107EB0006FC0863521F484E090D080E0DECF843638
:107EC00009F040C070D06FD0082F6DD080E0C81688
:107ED00080E7D80618F4F601B7BEE895C0E0D1E017
:107EE00062D089930C17E1F7F0E0CF16F0E7DF06D8
:107EF00018F0F601B7BEE89568D007B600FCFDCFD4
:107F0000A601A0E0B1E02C9130E011968C91119780
:107F100090E0982F8827822B932B1296FA010C0160
:107F200087BEE89511244E5F5F4FF1E0A038BF0790
:107F300051F7F601A7BEE89507B600FCFDCF97BE46
:107F4000E89526C08437B1F42ED02DD0F82E2BD052
:107F50003CD0F601EF2C8F010F5F1F4F84911BD097
:107F6000EA94F801C1F70894C11CD11CFA94CF0C13
:107F7000D11C0EC0853739F428D08EE10CD085E9AC
:107F80000AD08FE07ACF813511F488E018D01DD067
:107F900080E101D065CF982F8091C00085FFFCCF94
:107FA0009093C60008958091C00087FFFCCF809118
:107FB000C00084FD01C0A8958091C6000895E0E648
:107FC000F0E098E1908380830895EDDF803219F02E
:107FD00088E0F5DFFFCF84E1DECF1F93182FE3DFCA
:107FE0001150E9F7F2DF1F91089580E0E8DFEE27F6
:047FF000FF270994CA
:027FFE00040479
:00000001FF
