:100000000C9462000C948A000C948A000C948A0070
:100010000C948A000C948A000C948A000C948A0038
:100020000C948A000C948A000C948A000C94B004FE
:100030000C948A000C948A000C948A000C948A0018
:100040000C9447030C948A000C948A000C948A0048
:100050000C948A000C948A000C948A000C948A00F8
:100060000C9491030C948A000000000024002700E7
:100070002A0000000000250028002B0000000000DE
:1000800023002600290004040404040404040202DA
:100090000202020203030303030301020408102007
:1000A0004080010204081020010204081020000012
:1000B0000008000201000003040700000000000027
:1000C0000000510611241FBECFEFD8E0DEBFCDBF28
:1000D00011E0A0E0B1E0E8E1FDE002C005900D9282
:1000E000AA3DB107D9F722E0AAEDB1E001C01D9207
:1000F000A439B207E1F710E0C2E6D0E004C02197CE
:10010000FE010E948406C136D107C9F70E9423056B
:100110000C948A060C9400000895CF93DF93AC01F1
:10012000E0917F02F09180023097F1F090917E0291
:1001300080917D029817C0F090E0292F30E02617BB
:10014000370754F4D901A252BE4F240F351FE901DD
:1001500028812C939F5FF1CF10927E0260937D02E5
:10016000CB01DF91CF910994DF91CF910895833036
:1001700081F028F4813099F08230A9F00895873019
:10018000A9F08830C9F08430B1F4809180008F7D6F
:1001900003C0809180008F7780938000089584B59C
:1001A0008F7784BD089584B58F7DFBCF8091B0009B
:1001B0008F778093B00008958091B0008F7DF9CF44
:1001C000CF93DF93282F30E0F901E255FF4F849160
:1001D000F901E656FF4FD491F901EA57FF4FC49158
:1001E000CC23A1F081110E94B700EC2FF0E0EE0FBC
:1001F000FF1FE458FF4FA591B491EC91ED2381E0EE
:1002000090E009F480E0DF91CF91089580E090E0E4
:10021000FACF1F93CF93DF93282F30E0F901E255F7
:10022000FF4F8491F901E656FF4FD491F901EA5747
:10023000FF4FC491CC23A9F0162F81110E94B70063
:10024000EC2FF0E0EE0FFF1FEE58FF4FA591B49199
:100250008FB7F894EC91111108C0D095DE23DC9390
:100260008FBFDF91CF911F910895DE2BF8CFCF93F1
:10027000DF9390E0FC01E656FF4F24918A579F4F91
:10028000FC0184918823D1F090E0880F991FFC0134
:10029000E859FF4FA591B491FC01EE58FF4FC5916D
:1002A000D49161110EC09FB7F8948C91E22FE09524
:1002B0008E238C932881E223E8839FBFDF91CF9127
:1002C00008958FB7F894EC91E22BEC938FBFF6CFA3
:1002D0003FB7F8948091730290917402A0917502D7
:1002E000B091760226B5A89B05C02F3F19F0019664
:1002F000A11DB11D3FBFBA2FA92F982F8827BC0180
:10030000CD01620F711D811D911D42E0660F771FA7
:10031000881F991F4A95D1F708958F929F92AF92A7
:10032000BF92CF92DF92EF92FF924B015C010E944D
:1003300068016B017C010E9468016C197D098E09BE
:100340009F09683E734081059105A8F321E0821A58
:100350009108A108B10888EEC80E83E0D81EE11C00
:10036000F11C81149104A104B10429F7FF90EF90CE
:10037000DF90CF90BF90AF909F908F900895209185
:100380002402260F3327331F21323105ECF420914C
:100390004802FC0190E080E0243069F082E008959A
:1003A000A09124022191AC014C5F5D4FA40FB52FA9
:1003B000B11D2C930196861798F380912402680F43
:1003C0006093240280E0089581E00895109248022D
:1003D00081E080934A021092490261E082E10E942A
:1003E000090161E083E10E940901E9EBF0E080810D
:1003F0008E7F808380818D7F808388E48093B800A6
:1004000085E48093BC0008950895E0917E02809178
:100410007D02E81730F4F0E0E252FE4F808190E078
:1004200008958FEF9FEF089590917E0280917D0255
:100430002FEF3FEF981748F4E92FF0E0E252FE4F1C
:10044000208130E09F5F90937E02C90108958091E2
:100450007D0290917E02891B990B0895CF93DF93C3
:10046000CB01EA01642F0E94BF01CE01DF91CF9141
:100470000895CF93DF931F92CDB7DEB7698361E014
:10048000CE0101960E94BF0181E090E00F90DF91C4
:10049000CF91089590E080E008958627082E8295F8
:1004A000807F8025092E982F82958F70082686954B
:1004B00098278927880F880F880F80250895CF9364
:1004C000DF93EC01809192028111FCCF65E08FEF08
:1004D0009FEF0E944D022DE02093090129E1209316
:1004E0000A0168810E944D02E881F0E024E0F59560
:1004F000E7952A95E1F7E753FE4F208120930B0102
:10050000E881EF70F0E0E753FE4F208120930C016B
:1005100069810E944D02E981F0E034E0F595E795AC
:100520003A95E1F7E753FE4F208120930D01E981D1
:10053000EF70F0E0E753FE4F208120930E0180958D
:100540009095FC0144E0F695E7954A95E1F7EF7048
:10055000FF27E753FE4F208120930F01FC01EF702E
:10056000FF27E753FE4F208120931001FC01EF2F5E
:10057000FF27E295EF70E753FE4F20812093110192
:10058000E92FFF27EF70FF27E753FE4F808180930D
:10059000120182E1809393021092910210929002D4
:1005A00010928F0260918E02C1E06C278AE00E9457
:1005B0000901C093920281E0DF91CF91089580916B
:1005C0007D0290917E02891B990B181619063CF446
:1005D00081E892E00E94140280938D02F0CF08958A
:1005E000CF93DF9385ED8093BC00809100029091C2
:1005F0000102A0910202B09103020796A11DB11D54
:1006000023E0B695A795979587952A95D1F72091E0
:10061000BC0024FD03C01092480236C04091000285
:10062000509101026091020270910302452B462B0A
:10063000472B69F30097A105B10541F025E32A9501
:10064000F1F700000197A109B109E1CF8091FF0105
:1006500091E09093FE018823B9F0C091B800D09149
:10066000BA008091BC008A7B8093BC0060E082E18C
:100670000E94090160E083E10E9409010E94E601F5
:10068000D093BA00C093B800DF91CF9108951F9224
:100690000F920FB60F9211242F933F938F939F9336
:1006A000AF93BF9380916F0290917002A0917102FD
:1006B000B091720230916E0223E0230F2D3758F56E
:1006C0000196A11DB11D20936E0280936F0290933D
:1006D0007002A0937102B0937202809173029091A4
:1006E0007402A0917502B09176020196A11DB11D10
:1006F0008093730290937402A0937502B093760274
:10070000BF91AF919F918F913F912F910F900FBE0D
:100710000F901F90189526E8230F0296A11DB11D7A
:10072000D2CF1F920F920FB60F9211242F933F93A7
:100730004F935F936F937F938F939F93AF93BF93E9
:10074000EF93FF938091B900887F803609F44AC007
:10075000F0F5883209F4A7C018F5803109F49BC080
:10076000B8F4882309F4F9C0883009F494C0FF91E3
:10077000EF91BF91AF919F918F917F916F915F9119
:100780004F913F912F910F900FBE0F901F90189592
:10079000883109F488C0803251F78093470214C031
:1007A000803409F49DC040F48033B9F38833F9F6FE
:1007B0008093470285ECB0C0803509F485C0883548
:1007C00009F496C0883499F60E94F002D0CF883997
:1007D00009F48CC038F5883729F050F4883611F0C8
:1007E000803729F683E0809348021092460257C072
:1007F000883809F47BC0803919F0803809F0B7CF08
:1008000080914602803208F071C0E091460281E09A
:100810008E0F809346028091BB00F0E0EA5DFD4FB1
:1008200080833DC0803B39F0E0F4803A09F479C020
:10083000883A09F09CCF84E0809348021092250208
:1008400010922402E0917902F0917A020995809148
:10085000240281110FC081E08093240210920402CF
:1008600009C0803C09F4A6CF883C09F4A3CF883B9B
:1008700009F07DCFE091250281E08E0F8093250263
:10088000F0E0EC5FFD4F80818093BB0090912502EA
:100890008091240229C080916D028093BB0085EC79
:1008A0008093BC0064CF90916C0280916B0298178A
:1008B00058F5E0916C0281E08E0F80936C02F0E0BD
:1008C000E55BFD4F8081E9CFE0916C0281E08E0F06
:1008D00080936C028091BB00F0E0E55BFD4F80836C
:1008E00090916C0280916B029817C8F285E8D8CF7E
:1008F000E0916C0281E08E0F80936C028091BB00CE
:10090000F0E0E55BFD4F808380914A0281115CCF6E
:1009100081E08093490284EA8093BC0010924802EF
:1009200026CF85EC8093BC0010924802809146024D
:10093000803230F4E0914602F0E0EA5DFD4F108233
:100940006091460270E0E0917702F091780286E2D1
:1009500092E00995109246020ACF1092470234CFD6
:100960001F920F920FB60F9211241F932F933F9354
:100970004F935F936F937F938F939F93AF93BF93A7
:10098000CF93DF93EF93FF9380919202882321F11D
:1009900080918F0291E0980F90938F0281111CC07B
:1009A000C09191021091000180919302C81770F1DB
:1009B00060918E028AE00E94090160E0812F0E940E
:1009C0000901109292028091DC019091DD01019663
:1009D0009093DD018093DC0180918F02883010F0CC
:1009E00010928F02FF91EF91DF91CF91BF91AF9164
:1009F0009F918F917F916F915F914F913F912F9137
:100A00001F910F900FBE0F901F901895EC2FF0E0E4
:100A1000EF5FFE4F608120919002D1E0D20FD09322
:100A2000900281E090E001C0880F2A95EAF76823E0
:100A3000812F0E940901D630A8F210929002CF5F58
:100A4000C0939102C9CFCF93DF93CDB7DEB72E9776
:100A50000FB6F894DEBF0FBECDBF789484B5826028
:100A600084BD84B5816084BD85B5826085BD85B552
:100A7000816085BD80916E00816080936E001092D0
:100A8000810080918100826080938100809181004B
:100A900081608093810080918000816080938000DC
:100AA0008091B10084608093B1008091B00081603A
:100AB0008093B00080917A00846080937A00809166
:100AC0007A00826080937A0080917A0081608093BE
:100AD0007A0080917A00806880937A001092C10039
:100AE00081E080938E028EE0E9EAF1E0DE0111966A
:100AF00001900D928A95E1F77E0183E0E80EF11CEA
:100B000011E0812C34E2932E34EFA32EB12C40E877
:100B1000442E4EE3542E612C712CF701219131911A
:100B20007F0150E040E0C501B4010E946206CA01A5
:100B3000B901A30192010E946206223031054105EC
:100B4000510508F085C01F5F173039F78CE080939E
:100B5000000160E087E00E94370160E086E00E94CB
:100B6000370160E085E00E94370110927E0210920A
:100B70007D0210927C0210927B020E94E6018CE8BA
:100B800090E090937A02809379028DE890E09093C0
:100B900078028093770288EC8093BA008FED92E020
:100BA0009093800280937F0200E010E081E3F82EB2
:100BB00092E3E92E23E3522E87E00E94E0003C01FD
:100BC00086E00E94E0004C0185E00E94E0005C01AC
:100BD00068EC70E080E090E00E948D016A946728E4
:100BE00071F4F98280918D028A83CE0101960E9470
:100BF0005F0268EE73E080E090E00E948D018A94CD
:100C0000892871F4E98280918D028A83CE01019650
:100C10000E945F0268EE73E080E090E00E948D0128
:100C2000AA94AB2871F4598280918D028A83CE01F7
:100C300001960E945F0268EE73E080E090E00E94FF
:100C40008D010115110509F4B7CF0E940000B4CF42
:100C5000163009F47BCF1092800088E080938100E9
:100C600080918100182B109381003093890020938C
:100C7000880080916F00826080936F0061E08091B6
:100C800000010E94370160E08BE00E94370161E0C3
:100C90008AE00E94370160918E028AE00E94090179
:100CA00055CFE1E8F2E01382128288EE93E0A0E0F3
:100CB000B0E084839583A683B7838BEB91E0918327
:100CC00080830895A1E21A2EAA1BBB1BFD010DC053
:100CD000AA1FBB1FEE1FFF1FA217B307E407F507EC
:100CE00020F0A21BB30BE40BF50B661F771F881FC8
:100CF000991F1A9469F760957095809590959B015E
:100D0000AC01BD01CF010895EE0FFF1F0590F491D6
:080D1000E02D0994F894FFCFD7
:100D18000C2A2A2A2A2A2A382C000000000000005F
:100D280000000000000000000000000000000000BB
:100D380000000000000000000000000000000000AB
:100D4800000000000000000000000000000000009B
:100D5800000000000000000000000000000000008B
:100D6800000000000000000000000000000000007B
:100D7800000000000000000000000000000000006B
:100D8800000000000000000000000000000000005B
:100D9800000000000000000000000000000000004B
:100DA800000000000000000000000000000000003B
:100DB80000000000000000000000000100080040E2
:100DC8000000010004050D0000000039022E024A4F
:100DD8000204022702140205020D0E131516191A31
:0A0DE8001C232526292A2C32340092
:00000001FF
